{
  "_format": "hh-sol-artifact-1",
  "contractName": "DappLottery",
  "sourceName": "contracts/DappLottery.sol",
  "abi": [
    {
      "inputs": [
        {
          "internalType": "uint256",
          "name": "_servicePercent",
          "type": "uint256"
        }
      ],
      "stateMutability": "nonpayable",
      "type": "constructor"
    },
    {
      "anonymous": false,
      "inputs": [
        {
          "indexed": true,
          "internalType": "address",
          "name": "previousOwner",
          "type": "address"
        },
        {
          "indexed": true,
          "internalType": "address",
          "name": "newOwner",
          "type": "address"
        }
      ],
      "name": "OwnershipTransferred",
      "type": "event"
    },
    {
      "inputs": [
        {
          "internalType": "uint256",
          "name": "id",
          "type": "uint256"
        },
        {
          "internalType": "uint256",
          "name": "luckyNumberId",
          "type": "uint256"
        }
      ],
      "name": "buyTicket",
      "outputs": [],
      "stateMutability": "payable",
      "type": "function"
    },
    {
      "inputs": [
        {
          "internalType": "string",
          "name": "title",
          "type": "string"
        },
        {
          "internalType": "string",
          "name": "description",
          "type": "string"
        },
        {
          "internalType": "string",
          "name": "image",
          "type": "string"
        },
        {
          "internalType": "uint256",
          "name": "prize",
          "type": "uint256"
        },
        {
          "internalType": "uint256",
          "name": "ticketPrice",
          "type": "uint256"
        },
        {
          "internalType": "uint256",
          "name": "expiresAt",
          "type": "uint256"
        }
      ],
      "name": "createLottery",
      "outputs": [],
      "stateMutability": "nonpayable",
      "type": "function"
    },
    {
      "inputs": [],
      "name": "getLotteries",
      "outputs": [
        {
          "components": [
            {
              "internalType": "uint256",
              "name": "id",
              "type": "uint256"
            },
            {
              "internalType": "string",
              "name": "title",
              "type": "string"
            },
            {
              "internalType": "string",
              "name": "image",
              "type": "string"
            },
            {
              "internalType": "string",
              "name": "description",
              "type": "string"
            },
            {
              "internalType": "uint256",
              "name": "ticketPrice",
              "type": "uint256"
            },
            {
              "internalType": "uint256",
              "name": "participants",
              "type": "uint256"
            },
            {
              "internalType": "uint256",
              "name": "prize",
              "type": "uint256"
            },
            {
              "internalType": "uint256",
              "name": "createdAt",
              "type": "uint256"
            },
            {
              "internalType": "uint256",
              "name": "expiresAt",
              "type": "uint256"
            },
            {
              "internalType": "bool",
              "name": "drawn",
              "type": "bool"
            },
            {
              "internalType": "address",
              "name": "owner",
              "type": "address"
            },
            {
              "internalType": "uint256",
              "name": "winners",
              "type": "uint256"
            }
          ],
          "internalType": "struct DappLottery.LotteryStruct[]",
          "name": "Lotteries",
          "type": "tuple[]"
        }
      ],
      "stateMutability": "view",
      "type": "function"
    },
    {
      "inputs": [
        {
          "internalType": "uint256",
          "name": "_id",
          "type": "uint256"
        }
      ],
      "name": "getLottery",
      "outputs": [
        {
          "components": [
            {
              "internalType": "uint256",
              "name": "id",
              "type": "uint256"
            },
            {
              "internalType": "string",
              "name": "title",
              "type": "string"
            },
            {
              "internalType": "string",
              "name": "image",
              "type": "string"
            },
            {
              "internalType": "string",
              "name": "description",
              "type": "string"
            },
            {
              "internalType": "uint256",
              "name": "ticketPrice",
              "type": "uint256"
            },
            {
              "internalType": "uint256",
              "name": "participants",
              "type": "uint256"
            },
            {
              "internalType": "uint256",
              "name": "prize",
              "type": "uint256"
            },
            {
              "internalType": "uint256",
              "name": "createdAt",
              "type": "uint256"
            },
            {
              "internalType": "uint256",
              "name": "expiresAt",
              "type": "uint256"
            },
            {
              "internalType": "bool",
              "name": "drawn",
              "type": "bool"
            },
            {
              "internalType": "address",
              "name": "owner",
              "type": "address"
            },
            {
              "internalType": "uint256",
              "name": "winners",
              "type": "uint256"
            }
          ],
          "internalType": "struct DappLottery.LotteryStruct",
          "name": "",
          "type": "tuple"
        }
      ],
      "stateMutability": "view",
      "type": "function"
    },
    {
      "inputs": [
        {
          "internalType": "uint256",
          "name": "_id",
          "type": "uint256"
        }
      ],
      "name": "getLotteryLuckyNumbers",
      "outputs": [
        {
          "internalType": "string[]",
          "name": "",
          "type": "string[]"
        }
      ],
      "stateMutability": "view",
      "type": "function"
    },
    {
      "inputs": [
        {
          "internalType": "uint256",
          "name": "_id",
          "type": "uint256"
        }
      ],
      "name": "getLotteryParticipants",
      "outputs": [
        {
          "components": [
            {
              "internalType": "address",
              "name": "account",
              "type": "address"
            },
            {
              "internalType": "string",
              "name": "luckyNumber",
              "type": "string"
            },
            {
              "internalType": "bool",
              "name": "paid",
              "type": "bool"
            }
          ],
          "internalType": "struct DappLottery.ParticipantStruct[]",
          "name": "",
          "type": "tuple[]"
        }
      ],
      "stateMutability": "view",
      "type": "function"
    },
    {
      "inputs": [
        {
          "internalType": "uint256",
          "name": "id",
          "type": "uint256"
        }
      ],
      "name": "getLotteryResult",
      "outputs": [
        {
          "components": [
            {
              "internalType": "uint256",
              "name": "id",
              "type": "uint256"
            },
            {
              "internalType": "bool",
              "name": "completed",
              "type": "bool"
            },
            {
              "internalType": "bool",
              "name": "paidout",
              "type": "bool"
            },
            {
              "internalType": "uint256",
              "name": "timestamp",
              "type": "uint256"
            },
            {
              "internalType": "uint256",
              "name": "sharePerWinner",
              "type": "uint256"
            },
            {
              "components": [
                {
                  "internalType": "address",
                  "name": "account",
                  "type": "address"
                },
                {
                  "internalType": "string",
                  "name": "luckyNumber",
                  "type": "string"
                },
                {
                  "internalType": "bool",
                  "name": "paid",
                  "type": "bool"
                }
              ],
              "internalType": "struct DappLottery.ParticipantStruct[]",
              "name": "winners",
              "type": "tuple[]"
            }
          ],
          "internalType": "struct DappLottery.LotteryResultStruct",
          "name": "",
          "type": "tuple"
        }
      ],
      "stateMutability": "view",
      "type": "function"
    },
    {
      "inputs": [
        {
          "internalType": "uint256",
          "name": "id",
          "type": "uint256"
        },
        {
          "internalType": "string[]",
          "name": "luckyNumbers",
          "type": "string[]"
        }
      ],
      "name": "importLuckyNumber",
      "outputs": [],
      "stateMutability": "nonpayable",
      "type": "function"
    },
    {
      "inputs": [],
      "name": "owner",
      "outputs": [
        {
          "internalType": "address",
          "name": "",
          "type": "address"
        }
      ],
      "stateMutability": "view",
      "type": "function"
    },
    {
      "inputs": [
        {
          "internalType": "uint256",
          "name": "id",
          "type": "uint256"
        },
        {
          "internalType": "uint256",
          "name": "numOfWiners",
          "type": "uint256"
        }
      ],
      "name": "randomlySelectWinners",
      "outputs": [],
      "stateMutability": "nonpayable",
      "type": "function"
    },
    {
      "inputs": [],
      "name": "renounceOwnership",
      "outputs": [],
      "stateMutability": "nonpayable",
      "type": "function"
    },
    {
      "inputs": [],
      "name": "serviceBalance",
      "outputs": [
        {
          "internalType": "uint256",
          "name": "",
          "type": "uint256"
        }
      ],
      "stateMutability": "view",
      "type": "function"
    },
    {
      "inputs": [],
      "name": "servicePercent",
      "outputs": [
        {
          "internalType": "uint256",
          "name": "",
          "type": "uint256"
        }
      ],
      "stateMutability": "view",
      "type": "function"
    },
    {
      "inputs": [
        {
          "internalType": "address",
          "name": "newOwner",
          "type": "address"
        }
      ],
      "name": "transferOwnership",
      "outputs": [],
      "stateMutability": "nonpayable",
      "type": "function"
    }
  ],
  "bytecode": "0x60806040523480156200001157600080fd5b50604051620026ea380380620026ea833981016040819052620000349162000098565b6200003f3362000048565b600855620000b2565b600080546001600160a01b038381166001600160a01b0319831681178455604051919092169283917f8be0079c531659141344cd1fd0a4f28419497f9722a3daafe3b4186f6b6457e09190a35050565b600060208284031215620000ab57600080fd5b5051919050565b61262880620000c26000396000f3fe6080604052600436106100dd5760003560e01c806392e845f61161007f578063bcc82ec411610059578063bcc82ec414610255578063e2e4351614610277578063e8d490f114610297578063f2fde38b146102ad57600080fd5b806392e845f6146101db578063949ee75214610208578063ad19c8391461023557600080fd5b806370b261ae116100bb57806370b261ae1461014d578063715018a6146101715780638772d2dd146101865780638da5cb5b146101b357600080fd5b8063298ec208146100e25780635ddf3ec7146100f757806368fb2eba14610117575b600080fd5b6100f56100f0366004611dff565b6102cd565b005b34801561010357600080fd5b506100f5610112366004611ed8565b61059e565b34801561012357600080fd5b50610137610132366004611fa7565b6106c9565b6040516101449190612006565b60405180910390f35b34801561015957600080fd5b5061016360075481565b604051908152602001610144565b34801561017d57600080fd5b506100f56107f5565b34801561019257600080fd5b506101a66101a1366004611fa7565b610809565b6040516101449190612094565b3480156101bf57600080fd5b506000546040516001600160a01b039091168152602001610144565b3480156101e757600080fd5b506101fb6101f6366004611fa7565b6109b4565b604051610144919061222f565b34801561021457600080fd5b50610228610223366004611fa7565b610c00565b6040516101449190612249565b34801561024157600080fd5b506100f56102503660046122ab565b610ce1565b34801561026157600080fd5b5061026a610ff4565b604051610144919061234f565b34801561028357600080fd5b506100f5610292366004611dff565b6112db565b3480156102a357600080fd5b5061016360085481565b3480156102b957600080fd5b506100f56102c83660046123a4565b611940565b600082815260056020908152604080832084845290915290205460ff161561033c5760405162461bcd60e51b815260206004820152601960248201527f4c75636b79206e756d62657220616c726561647920757365640000000000000060448201526064015b60405180910390fd5b6000828152600460205260409020548111156103925760405162461bcd60e51b81526020600482015260156024820152741b1d58dade539d5b58995c881a5cc818589cd95b9d605a1b6044820152606401610333565b6000828152600260205260409020600401543410156103fd5760405162461bcd60e51b815260206004820152602160248201527f696e73756666696369656e742065746e65727320746f206275792065746865726044820152607360f81b6064820152608401610333565b600082815260026020526040812060050180549161041a836123e3565b9091555050600082815260036020908152604080832081516060810183523381528685526004845291909320805491928301918590811061045d5761045d6123fc565b90600052602060002001805461047290612412565b80601f016020809104026020016040519081016040528092919081815260200182805461049e90612412565b80156104eb5780601f106104c0576101008083540402835291602001916104eb565b820191906000526020600020905b8154815290600101906020018083116104ce57829003601f168201915b50505091835250506000602091820181905283546001808201865594825290829020835160039092020180546001600160a01b0319166001600160a01b03909216919091178155908201519192909190820190610548908261249a565b506040918201516002909101805491151560ff199283161790556000848152600560209081528382208583529052918220805490911660011790556007805434929061059590849061255a565b90915550505050565b60008281526002602052604090206009015461010090046001600160a01b031633146106025760405162461bcd60e51b8152602060048201526013602482015272556e617574686f72697a656420656e7469747960681b6044820152606401610333565b6000828152600460205260409020546001116106545760405162461bcd60e51b8152602060048201526011602482015270105b1c9958591e4819d95b995c985d1959607a1b6044820152606401610333565b60008151116106a55760405162461bcd60e51b815260206004820152601a60248201527f4c75636b794e756d6265722063616e6e6f74206265207a65726f0000000000006044820152606401610333565b600082815260046020908152604090912082516106c492840190611cda565b505050565b606060036000838152602001908152602001600020805480602002602001604051908101604052809291908181526020016000905b828210156107ea57600084815260209081902060408051606081019091526003850290910180546001600160a01b03168252600181018054929391929184019161074790612412565b80601f016020809104026020016040519081016040528092919081815260200182805461077390612412565b80156107c05780601f10610795576101008083540402835291602001916107c0565b820191906000526020600020905b8154815290600101906020018083116107a357829003601f168201915b50505091835250506002919091015460ff16151560209182015290825260019290920191016106fe565b505050509050919050565b6107fd6119b9565b6108076000611a13565b565b6108466040518060c00160405280600081526020016000151581526020016000151581526020016000815260200160008152602001606081525090565b6000828152600660209081526040808320815160c08101835281548152600182015460ff8082161515838701526101009091041615158184015260028201546060820152600382015460808201526004820180548451818702810187019095528085529195929460a0870194939192919084015b828210156109a657600084815260209081902060408051606081019091526003850290910180546001600160a01b03168252600181018054929391929184019161090390612412565b80601f016020809104026020016040519081016040528092919081815260200182805461092f90612412565b801561097c5780601f106109515761010080835404028352916020019161097c565b820191906000526020600020905b81548152906001019060200180831161095f57829003601f168201915b50505091835250506002919091015460ff16151560209182015290825260019290920191016108ba565b505050915250909392505050565b6109bc611d2c565b6002600083815260200190815260200160002060405180610180016040529081600082015481526020016001820180546109f590612412565b80601f0160208091040260200160405190810160405280929190818152602001828054610a2190612412565b8015610a6e5780601f10610a4357610100808354040283529160200191610a6e565b820191906000526020600020905b815481529060010190602001808311610a5157829003601f168201915b50505050508152602001600282018054610a8790612412565b80601f0160208091040260200160405190810160405280929190818152602001828054610ab390612412565b8015610b005780601f10610ad557610100808354040283529160200191610b00565b820191906000526020600020905b815481529060010190602001808311610ae357829003601f168201915b50505050508152602001600382018054610b1990612412565b80601f0160208091040260200160405190810160405280929190818152602001828054610b4590612412565b8015610b925780601f10610b6757610100808354040283529160200191610b92565b820191906000526020600020905b815481529060010190602001808311610b7557829003601f168201915b505050918352505060048201546020820152600582015460408201526006820154606082015260078201546080820152600882015460a0820152600982015460ff8116151560c08301526001600160a01b03610100918290041660e0830152600a9092015491015292915050565b606060046000838152602001908152602001600020805480602002602001604051908101604052809291908181526020016000905b828210156107ea578382906000526020600020018054610c5490612412565b80601f0160208091040260200160405190810160405280929190818152602001828054610c8090612412565b8015610ccd5780601f10610ca257610100808354040283529160200191610ccd565b820191906000526020600020905b815481529060010190602001808311610cb057829003601f168201915b505050505081526020019060010190610c35565b6000865111610d2a5760405162461bcd60e51b81526020600482015260156024820152747469746c652063616e6e6f7420626520656d70747960581b6044820152606401610333565b6000855111610d7b5760405162461bcd60e51b815260206004820152601b60248201527f6465736372697074696f6e2063616e6e6f7420626520656d70747900000000006044820152606401610333565b6000845111610dc45760405162461bcd60e51b8152602060048201526015602482015274696d6167652063616e6e6f7420626520656d70747960581b6044820152606401610333565b60008311610e0b5760405162461bcd60e51b81526020600482015260146024820152737072697a652063616e6e6f74206265207a65726f60601b6044820152606401610333565b60008211610e5b5760405162461bcd60e51b815260206004820152601a60248201527f7469636b657250726963652063616e6e6f74206265207a65726f0000000000006044820152606401610333565b610e67426103e8612573565b8111610ec65760405162461bcd60e51b815260206004820152602860248201527f6578706972657341742063616e6e6f74206265206c657373207468616e207468604482015267652066757475726560c01b6064820152608401610333565b610ed4600180546001019055565b610edc611d2c565b6001805480835260208084018a815260408086018a905260808601889052606086018b905260c086018990524260e08701526101008601879052336101408701526000938452600290925291208351815590518392820190610f3e908261249a565b5060408201516002820190610f53908261249a565b5060608201516003820190610f68908261249a565b506080820151600482015560a0820151600582015560c0820151600682015560e082015160078201556101008083015160088301556101208301516009830180546101408601516001600160a81b0319909116921515610100600160a81b031916929092176001600160a01b0390921690920217905561016090910151600a9091015550505050505050565b6060610fff60015490565b67ffffffffffffffff81111561101757611017611e21565b60405190808252806020026020018201604052801561105057816020015b61103d611d2c565b8152602001906001900390816110355790505b50905060015b60015481116112d75760026000828152602001908152602001600020604051806101800160405290816000820154815260200160018201805461109890612412565b80601f01602080910402602001604051908101604052809291908181526020018280546110c490612412565b80156111115780601f106110e657610100808354040283529160200191611111565b820191906000526020600020905b8154815290600101906020018083116110f457829003601f168201915b5050505050815260200160028201805461112a90612412565b80601f016020809104026020016040519081016040528092919081815260200182805461115690612412565b80156111a35780601f10611178576101008083540402835291602001916111a3565b820191906000526020600020905b81548152906001019060200180831161118657829003601f168201915b505050505081526020016003820180546111bc90612412565b80601f01602080910402602001604051908101604052809291908181526020018280546111e890612412565b80156112355780601f1061120a57610100808354040283529160200191611235565b820191906000526020600020905b81548152906001019060200180831161121857829003601f168201915b505050918352505060048201546020820152600582015460408201526006820154606082015260078201546080820152600882015460a0820152600982015460ff8116151560c08301526001600160a01b03610100918290041660e0830152600a90920154910152826112a960018461258a565b815181106112b9576112b96123fc565b602002602001018190525080806112cf906123e3565b915050611056565b5090565b60008281526002602052604090206009015461010090046001600160a01b031633148061132c575060008054838252600260205260409091206009015461010090046001600160a01b039081169116145b61136e5760405162461bcd60e51b8152602060048201526013602482015272556e617574686f72697a656420656e7469747960681b6044820152606401610333565b61137a426103e8612573565b600083815260026020526040902060080154116113d95760405162461bcd60e51b815260206004820152601a60248201527f4576656e7420646561646c696e65206e6f7420726561636865640000000000006044820152606401610333565b60008281526006602052604090206001015460ff16156114475760405162461bcd60e51b815260206004820152602360248201527f4c6f7474657279206861766520616c7265616479206265656e20636f6d706c656044820152621d195960ea1b6064820152608401610333565b6000828152600360205260409020548111156114be5760405162461bcd60e51b815260206004820152603060248201527f4e756d626572206f662077696e6e6572732065786365656473206e756d62657260448201526f206f66207061727469636970616e747360801b6064820152608401610333565b60008167ffffffffffffffff8111156114d9576114d9611e21565b60405190808252806020026020018201604052801561153957816020015b611526604051806060016040528060006001600160a01b03168152602001606081526020016000151581525090565b8152602001906001900390816114f75790505b509050600060036000858152602001908152602001600020805480602002602001604051908101604052809291908181526020016000905b8282101561165d57600084815260209081902060408051606081019091526003850290910180546001600160a01b0316825260018101805492939192918401916115ba90612412565b80601f01602080910402602001604051908101604052809291908181526020018280546115e690612412565b80156116335780601f1061160857610100808354040283529160200191611633565b820191906000526020600020905b81548152906001019060200180831161161657829003601f168201915b50505091835250506002919091015460ff1615156020918201529082526001929092019101611571565b5050505090506000815167ffffffffffffffff81111561167f5761167f611e21565b6040519080825280602002602001820160405280156116a8578160200160208202803683370190505b50905060005b82518110156116e757808282815181106116ca576116ca6123fc565b6020908102919091010152806116df816123e3565b9150506116ae565b506000600183516116f8919061258a565b90505b600181106117d257600061171082600161255a565b604080514260208201529081018490526060016040516020818303038152906040528051906020012060001c61174691906125b3565b9050600083828151811061175c5761175c6123fc565b60200260200101519050838381518110611778576117786123fc565b6020026020010151848381518110611792576117926123fc565b602002602001018181525050808484815181106117b1576117b16123fc565b602002602001018181525050505080806117ca906125c7565b9150506116fb565b5060005b848110156118da57828282815181106117f1576117f16123fc565b602002602001015181518110611809576118096123fc565b6020026020010151848281518110611823576118236123fc565b602002602001018190525060066000878152602001908152602001600020600401848281518110611856576118566123fc565b602090810291909101810151825460018082018555600094855293839020825160039092020180546001600160a01b0319166001600160a01b039092169190911781559181015190928201906118ac908261249a565b50604091909101516002909101805460ff1916911515919091179055806118d2816123e3565b9150506117d6565b5060008581526006602090815260408083208881556001808201805460ff199081168317909155426002808501919091556004909301549290945291909320600a81019390935560099092018054909116909117905561193985611a63565b5050505050565b6119486119b9565b6001600160a01b0381166119ad5760405162461bcd60e51b815260206004820152602660248201527f4f776e61626c653a206e6577206f776e657220697320746865207a65726f206160448201526564647265737360d01b6064820152608401610333565b6119b681611a13565b50565b6000546001600160a01b031633146108075760405162461bcd60e51b815260206004820181905260248201527f4f776e61626c653a2063616c6c6572206973206e6f7420746865206f776e65726044820152606401610333565b600080546001600160a01b038381166001600160a01b0319831681178455604051919092169283917f8be0079c531659141344cd1fd0a4f28419497f9722a3daafe3b4186f6b6457e09190a35050565b600081815260066020908152604080832060040180548251818502810185019093528083529192909190849084015b82821015611b7e57600084815260209081902060408051606081019091526003850290910180546001600160a01b031682526001810180549293919291840191611adb90612412565b80601f0160208091040260200160405190810160405280929190818152602001828054611b0790612412565b8015611b545780601f10611b2957610100808354040283529160200191611b54565b820191906000526020600020905b815481529060010190602001808311611b3757829003601f168201915b50505091835250506002919091015460ff1615156020918201529082526001929092019101611a92565b50505060008481526003602090815260408083205460029092528220600401549394509092611bad9250612573565b90506000606460085483611bc19190612573565b611bcb91906125de565b90506000611bd9828461258a565b90506000845182611bea91906125de565b905060005b8551811015611c3157611c1f868281518110611c0d57611c0d6123fc565b60200260200101516000015183611c7a565b80611c29816123e3565b915050611bef565b508360076000828254611c44919061258a565b9091555050600086815260066020526040902095865560018601805461ff00191661010017905560039095019490945550505050565b6000826001600160a01b03168260405160006040518083038185875af1925050503d8060008114611cc7576040519150601f19603f3d011682016040523d82523d6000602084013e611ccc565b606091505b50509050806106c457600080fd5b828054828255906000526020600020908101928215611d20579160200282015b82811115611d205782518290611d10908261249a565b5091602001919060010190611cfa565b506112d7929150611d98565b60405180610180016040528060008152602001606081526020016060815260200160608152602001600081526020016000815260200160008152602001600081526020016000815260200160001515815260200160006001600160a01b03168152602001600081525090565b808211156112d7576000611dac8282611db5565b50600101611d98565b508054611dc190612412565b6000825580601f10611dd1575050565b601f0160209004906000526020600020908101906119b691905b808211156112d75760008155600101611deb565b60008060408385031215611e1257600080fd5b50508035926020909101359150565b634e487b7160e01b600052604160045260246000fd5b604051601f8201601f1916810167ffffffffffffffff81118282101715611e6057611e60611e21565b604052919050565b600082601f830112611e7957600080fd5b813567ffffffffffffffff811115611e9357611e93611e21565b611ea6601f8201601f1916602001611e37565b818152846020838601011115611ebb57600080fd5b816020850160208301376000918101602001919091529392505050565b60008060408385031215611eeb57600080fd5b8235915060208084013567ffffffffffffffff80821115611f0b57600080fd5b818601915086601f830112611f1f57600080fd5b813581811115611f3157611f31611e21565b8060051b611f40858201611e37565b918252838101850191858101908a841115611f5a57600080fd5b86860192505b83831015611f9657823585811115611f785760008081fd5b611f868c89838a0101611e68565b8352509186019190860190611f60565b809750505050505050509250929050565b600060208284031215611fb957600080fd5b5035919050565b6000815180845260005b81811015611fe657602081850181015186830182015201611fca565b506000602082860101526020601f19601f83011685010191505092915050565b60006020808301818452808551808352604092508286019150828160051b87010184880160005b8381101561208657888303603f19018552815180516001600160a01b031684528781015160608986018190529061206682870182611fc0565b92890151151595890195909552509487019492509086019060010161202d565b509098975050505050505050565b6000602080835260e0830184518285015281850151604081151581870152808701519150606082151581880152808801516080880152608088015160a088015260a0880151925060c08088015283835180865261010095508589019150858160051b8a01019550868501945060005b818110156121585789870360ff19018352855180516001600160a01b0316885288810151898901869052612139868a0182611fc0565b9187015115159887019890985296509487019491870191600101612103565b50949998505050505050505050565b600061018082518452602083015181602086015261218782860182611fc0565b915050604083015184820360408601526121a18282611fc0565b915050606083015184820360608601526121bb8282611fc0565b9150506080830151608085015260a083015160a085015260c083015160c085015260e083015160e0850152610100808401518186015250610120808401516122068287018215159052565b5050610140838101516001600160a01b0316908501526101609283015192909301919091525090565b6020815260006122426020830184612167565b9392505050565b6000602080830181845280855180835260408601915060408160051b870101925083870160005b8281101561229e57603f1988860301845261228c858351611fc0565b94509285019290850190600101612270565b5092979650505050505050565b60008060008060008060c087890312156122c457600080fd5b863567ffffffffffffffff808211156122dc57600080fd5b6122e88a838b01611e68565b975060208901359150808211156122fe57600080fd5b61230a8a838b01611e68565b9650604089013591508082111561232057600080fd5b5061232d89828a01611e68565b945050606087013592506080870135915060a087013590509295509295509295565b6000602080830181845280855180835260408601915060408160051b870101925083870160005b8281101561229e57603f19888603018452612392858351612167565b94509285019290850190600101612376565b6000602082840312156123b657600080fd5b81356001600160a01b038116811461224257600080fd5b634e487b7160e01b600052601160045260246000fd5b6000600182016123f5576123f56123cd565b5060010190565b634e487b7160e01b600052603260045260246000fd5b600181811c9082168061242657607f821691505b60208210810361244657634e487b7160e01b600052602260045260246000fd5b50919050565b601f8211156106c457600081815260208120601f850160051c810160208610156124735750805b601f850160051c820191505b818110156124925782815560010161247f565b505050505050565b815167ffffffffffffffff8111156124b4576124b4611e21565b6124c8816124c28454612412565b8461244c565b602080601f8311600181146124fd57600084156124e55750858301515b600019600386901b1c1916600185901b178555612492565b600085815260208120601f198616915b8281101561252c5788860151825594840194600190910190840161250d565b508582101561254a5787850151600019600388901b60f8161c191681555b5050505050600190811b01905550565b8082018082111561256d5761256d6123cd565b92915050565b808202811582820484141761256d5761256d6123cd565b8181038181111561256d5761256d6123cd565b634e487b7160e01b600052601260045260246000fd5b6000826125c2576125c261259d565b500690565b6000816125d6576125d66123cd565b506000190190565b6000826125ed576125ed61259d565b50049056fea26469706673582212201cc55474c54cb56332528920fccf0919ed5b762d9e7d4aa0193ecd617c84776d64736f6c63430008110033",
  "linkReferences": {},
  "deployedLinkReferences": {}
}